{
  "_format": "hh-sol-artifact-1",
  "contractName": "NadNFT",
  "sourceName": "contracts/NadNFT.sol",
  "abi": [
    {
      "inputs": [
        {
          "internalType": "address",
          "name": "initialOwner",
          "type": "address"
        }
      ],
      "stateMutability": "nonpayable",
      "type": "constructor"
    },
    {
      "inputs": [
        {
          "internalType": "address",
          "name": "sender",
          "type": "address"
        },
        {
          "internalType": "uint256",
          "name": "tokenId",
          "type": "uint256"
        },
        {
          "internalType": "address",
          "name": "owner",
          "type": "address"
        }
      ],
      "name": "ERC721IncorrectOwner",
      "type": "error"
    },
    {
      "inputs": [
        {
          "internalType": "address",
          "name": "operator",
          "type": "address"
        },
        {
          "internalType": "uint256",
          "name": "tokenId",
          "type": "uint256"
        }
      ],
      "name": "ERC721InsufficientApproval",
      "type": "error"
    },
    {
      "inputs": [
        {
          "internalType": "address",
          "name": "approver",
          "type": "address"
        }
      ],
      "name": "ERC721InvalidApprover",
      "type": "error"
    },
    {
      "inputs": [
        {
          "internalType": "address",
          "name": "operator",
          "type": "address"
        }
      ],
      "name": "ERC721InvalidOperator",
      "type": "error"
    },
    {
      "inputs": [
        {
          "internalType": "address",
          "name": "owner",
          "type": "address"
        }
      ],
      "name": "ERC721InvalidOwner",
      "type": "error"
    },
    {
      "inputs": [
        {
          "internalType": "address",
          "name": "receiver",
          "type": "address"
        }
      ],
      "name": "ERC721InvalidReceiver",
      "type": "error"
    },
    {
      "inputs": [
        {
          "internalType": "address",
          "name": "sender",
          "type": "address"
        }
      ],
      "name": "ERC721InvalidSender",
      "type": "error"
    },
    {
      "inputs": [
        {
          "internalType": "uint256",
          "name": "tokenId",
          "type": "uint256"
        }
      ],
      "name": "ERC721NonexistentToken",
      "type": "error"
    },
    {
      "inputs": [
        {
          "internalType": "address",
          "name": "owner",
          "type": "address"
        }
      ],
      "name": "OwnableInvalidOwner",
      "type": "error"
    },
    {
      "inputs": [
        {
          "internalType": "address",
          "name": "account",
          "type": "address"
        }
      ],
      "name": "OwnableUnauthorizedAccount",
      "type": "error"
    },
    {
      "anonymous": false,
      "inputs": [
        {
          "indexed": true,
          "internalType": "address",
          "name": "owner",
          "type": "address"
        },
        {
          "indexed": true,
          "internalType": "address",
          "name": "approved",
          "type": "address"
        },
        {
          "indexed": true,
          "internalType": "uint256",
          "name": "tokenId",
          "type": "uint256"
        }
      ],
      "name": "Approval",
      "type": "event"
    },
    {
      "anonymous": false,
      "inputs": [
        {
          "indexed": true,
          "internalType": "address",
          "name": "owner",
          "type": "address"
        },
        {
          "indexed": true,
          "internalType": "address",
          "name": "operator",
          "type": "address"
        },
        {
          "indexed": false,
          "internalType": "bool",
          "name": "approved",
          "type": "bool"
        }
      ],
      "name": "ApprovalForAll",
      "type": "event"
    },
    {
      "anonymous": false,
      "inputs": [
        {
          "indexed": false,
          "internalType": "uint256",
          "name": "_fromTokenId",
          "type": "uint256"
        },
        {
          "indexed": false,
          "internalType": "uint256",
          "name": "_toTokenId",
          "type": "uint256"
        }
      ],
      "name": "BatchMetadataUpdate",
      "type": "event"
    },
    {
      "anonymous": false,
      "inputs": [
        {
          "indexed": false,
          "internalType": "uint256",
          "name": "_tokenId",
          "type": "uint256"
        }
      ],
      "name": "MetadataUpdate",
      "type": "event"
    },
    {
      "anonymous": false,
      "inputs": [
        {
          "indexed": true,
          "internalType": "address",
          "name": "previousOwner",
          "type": "address"
        },
        {
          "indexed": true,
          "internalType": "address",
          "name": "newOwner",
          "type": "address"
        }
      ],
      "name": "OwnershipTransferred",
      "type": "event"
    },
    {
      "anonymous": false,
      "inputs": [
        {
          "indexed": true,
          "internalType": "address",
          "name": "from",
          "type": "address"
        },
        {
          "indexed": true,
          "internalType": "address",
          "name": "to",
          "type": "address"
        },
        {
          "indexed": true,
          "internalType": "uint256",
          "name": "tokenId",
          "type": "uint256"
        }
      ],
      "name": "Transfer",
      "type": "event"
    },
    {
      "inputs": [
        {
          "internalType": "address",
          "name": "to",
          "type": "address"
        },
        {
          "internalType": "uint256",
          "name": "tokenId",
          "type": "uint256"
        }
      ],
      "name": "approve",
      "outputs": [],
      "stateMutability": "nonpayable",
      "type": "function"
    },
    {
      "inputs": [
        {
          "internalType": "address",
          "name": "owner",
          "type": "address"
        }
      ],
      "name": "balanceOf",
      "outputs": [
        {
          "internalType": "uint256",
          "name": "",
          "type": "uint256"
        }
      ],
      "stateMutability": "view",
      "type": "function"
    },
    {
      "inputs": [
        {
          "internalType": "uint256",
          "name": "tokenId",
          "type": "uint256"
        }
      ],
      "name": "getApproved",
      "outputs": [
        {
          "internalType": "address",
          "name": "",
          "type": "address"
        }
      ],
      "stateMutability": "view",
      "type": "function"
    },
    {
      "inputs": [
        {
          "internalType": "address",
          "name": "owner",
          "type": "address"
        },
        {
          "internalType": "address",
          "name": "operator",
          "type": "address"
        }
      ],
      "name": "isApprovedForAll",
      "outputs": [
        {
          "internalType": "bool",
          "name": "",
          "type": "bool"
        }
      ],
      "stateMutability": "view",
      "type": "function"
    },
    {
      "inputs": [
        {
          "internalType": "address",
          "name": "to",
          "type": "address"
        },
        {
          "internalType": "string",
          "name": "uri",
          "type": "string"
        }
      ],
      "name": "mint",
      "outputs": [],
      "stateMutability": "payable",
      "type": "function"
    },
    {
      "inputs": [],
      "name": "name",
      "outputs": [
        {
          "internalType": "string",
          "name": "",
          "type": "string"
        }
      ],
      "stateMutability": "view",
      "type": "function"
    },
    {
      "inputs": [],
      "name": "owner",
      "outputs": [
        {
          "internalType": "address",
          "name": "",
          "type": "address"
        }
      ],
      "stateMutability": "view",
      "type": "function"
    },
    {
      "inputs": [
        {
          "internalType": "uint256",
          "name": "tokenId",
          "type": "uint256"
        }
      ],
      "name": "ownerOf",
      "outputs": [
        {
          "internalType": "address",
          "name": "",
          "type": "address"
        }
      ],
      "stateMutability": "view",
      "type": "function"
    },
    {
      "inputs": [],
      "name": "renounceOwnership",
      "outputs": [],
      "stateMutability": "nonpayable",
      "type": "function"
    },
    {
      "inputs": [
        {
          "internalType": "address",
          "name": "from",
          "type": "address"
        },
        {
          "internalType": "address",
          "name": "to",
          "type": "address"
        },
        {
          "internalType": "uint256",
          "name": "tokenId",
          "type": "uint256"
        }
      ],
      "name": "safeTransferFrom",
      "outputs": [],
      "stateMutability": "nonpayable",
      "type": "function"
    },
    {
      "inputs": [
        {
          "internalType": "address",
          "name": "from",
          "type": "address"
        },
        {
          "internalType": "address",
          "name": "to",
          "type": "address"
        },
        {
          "internalType": "uint256",
          "name": "tokenId",
          "type": "uint256"
        },
        {
          "internalType": "bytes",
          "name": "data",
          "type": "bytes"
        }
      ],
      "name": "safeTransferFrom",
      "outputs": [],
      "stateMutability": "nonpayable",
      "type": "function"
    },
    {
      "inputs": [
        {
          "internalType": "address",
          "name": "operator",
          "type": "address"
        },
        {
          "internalType": "bool",
          "name": "approved",
          "type": "bool"
        }
      ],
      "name": "setApprovalForAll",
      "outputs": [],
      "stateMutability": "nonpayable",
      "type": "function"
    },
    {
      "inputs": [
        {
          "internalType": "bytes4",
          "name": "interfaceId",
          "type": "bytes4"
        }
      ],
      "name": "supportsInterface",
      "outputs": [
        {
          "internalType": "bool",
          "name": "",
          "type": "bool"
        }
      ],
      "stateMutability": "view",
      "type": "function"
    },
    {
      "inputs": [],
      "name": "symbol",
      "outputs": [
        {
          "internalType": "string",
          "name": "",
          "type": "string"
        }
      ],
      "stateMutability": "view",
      "type": "function"
    },
    {
      "inputs": [
        {
          "internalType": "uint256",
          "name": "tokenId",
          "type": "uint256"
        }
      ],
      "name": "tokenURI",
      "outputs": [
        {
          "internalType": "string",
          "name": "",
          "type": "string"
        }
      ],
      "stateMutability": "view",
      "type": "function"
    },
    {
      "inputs": [
        {
          "internalType": "address",
          "name": "from",
          "type": "address"
        },
        {
          "internalType": "address",
          "name": "to",
          "type": "address"
        },
        {
          "internalType": "uint256",
          "name": "tokenId",
          "type": "uint256"
        }
      ],
      "name": "transferFrom",
      "outputs": [],
      "stateMutability": "nonpayable",
      "type": "function"
    },
    {
      "inputs": [
        {
          "internalType": "address",
          "name": "newOwner",
          "type": "address"
        }
      ],
      "name": "transferOwnership",
      "outputs": [],
      "stateMutability": "nonpayable",
      "type": "function"
    },
    {
      "inputs": [
        {
          "internalType": "address",
          "name": "to",
          "type": "address"
        },
        {
          "internalType": "uint256",
          "name": "tokenId",
          "type": "uint256"
        }
      ],
      "name": "transferWithRoyalty",
      "outputs": [],
      "stateMutability": "payable",
      "type": "function"
    }
  ],
  "bytecode": "0x60806040523480156200001157600080fd5b506040516200329c3803806200329c8339818101604052810190620000379190620002dd565b806040518060400160405280600681526020017f4e61644e465400000000000000000000000000000000000000000000000000008152506040518060400160405280600481526020017f4e4e4654000000000000000000000000000000000000000000000000000000008152508160009081620000b5919062000589565b508060019081620000c7919062000589565b505050600073ffffffffffffffffffffffffffffffffffffffff168173ffffffffffffffffffffffffffffffffffffffff16036200013f5760006040517f1e4fbdf700000000000000000000000000000000000000000000000000000000815260040162000136919062000681565b60405180910390fd5b6200015081620001ad60201b60201c565b50731234567890abcdef1234567890abcdef12345678600960006101000a81548173ffffffffffffffffffffffffffffffffffffffff021916908373ffffffffffffffffffffffffffffffffffffffff160217905550506200069e565b6000600760009054906101000a900473ffffffffffffffffffffffffffffffffffffffff16905081600760006101000a81548173ffffffffffffffffffffffffffffffffffffffff021916908373ffffffffffffffffffffffffffffffffffffffff1602179055508173ffffffffffffffffffffffffffffffffffffffff168173ffffffffffffffffffffffffffffffffffffffff167f8be0079c531659141344cd1fd0a4f28419497f9722a3daafe3b4186f6b6457e060405160405180910390a35050565b600080fd5b600073ffffffffffffffffffffffffffffffffffffffff82169050919050565b6000620002a58262000278565b9050919050565b620002b78162000298565b8114620002c357600080fd5b50565b600081519050620002d781620002ac565b92915050565b600060208284031215620002f657620002f562000273565b5b60006200030684828501620002c6565b91505092915050565b600081519050919050565b7f4e487b7100000000000000000000000000000000000000000000000000000000600052604160045260246000fd5b7f4e487b7100000000000000000000000000000000000000000000000000000000600052602260045260246000fd5b600060028204905060018216806200039157607f821691505b602082108103620003a757620003a662000349565b5b50919050565b60008190508160005260206000209050919050565b60006020601f8301049050919050565b600082821b905092915050565b600060088302620004117fffffffffffffffffffffffffffffffffffffffffffffffffffffffffffffffff82620003d2565b6200041d8683620003d2565b95508019841693508086168417925050509392505050565b6000819050919050565b6000819050919050565b60006200046a620004646200045e8462000435565b6200043f565b62000435565b9050919050565b6000819050919050565b620004868362000449565b6200049e620004958262000471565b848454620003df565b825550505050565b600090565b620004b5620004a6565b620004c28184846200047b565b505050565b5b81811015620004ea57620004de600082620004ab565b600181019050620004c8565b5050565b601f82111562000539576200050381620003ad565b6200050e84620003c2565b810160208510156200051e578190505b620005366200052d85620003c2565b830182620004c7565b50505b505050565b600082821c905092915050565b60006200055e600019846008026200053e565b1980831691505092915050565b60006200057983836200054b565b9150826002028217905092915050565b62000594826200030f565b67ffffffffffffffff811115620005b057620005af6200031a565b5b620005bc825462000378565b620005c9828285620004ee565b600060209050601f831160018114620006015760008415620005ec578287015190505b620005f885826200056b565b86555062000668565b601f1984166200061186620003ad565b60005b828110156200063b5784890151825560018201915060208501945060208101905062000614565b868310156200065b578489015162000657601f8916826200054b565b8355505b6001600288020188555050505b505050505050565b6200067b8162000298565b82525050565b600060208201905062000698600083018462000670565b92915050565b612bee80620006ae6000396000f3fe6080604052600436106101095760003560e01c80638da5cb5b11610095578063b9b316f311610064578063b9b316f314610367578063c87b56dd14610383578063d0def521146103c0578063e985e9c5146103dc578063f2fde38b1461041957610109565b80638da5cb5b146102bf57806395d89b41146102ea578063a22cb46514610315578063b88d4fde1461033e57610109565b806323b872dd116100dc57806323b872dd146101dc57806342842e0e146102055780636352211e1461022e57806370a082311461026b578063715018a6146102a857610109565b806301ffc9a71461010e57806306fdde031461014b578063081812fc14610176578063095ea7b3146101b3575b600080fd5b34801561011a57600080fd5b5061013560048036038101906101309190611e49565b610442565b6040516101429190611e91565b60405180910390f35b34801561015757600080fd5b50610160610454565b60405161016d9190611f3c565b60405180910390f35b34801561018257600080fd5b5061019d60048036038101906101989190611f94565b6104e6565b6040516101aa9190612002565b60405180910390f35b3480156101bf57600080fd5b506101da60048036038101906101d59190612049565b610502565b005b3480156101e857600080fd5b5061020360048036038101906101fe9190612089565b610518565b005b34801561021157600080fd5b5061022c60048036038101906102279190612089565b61061a565b005b34801561023a57600080fd5b5061025560048036038101906102509190611f94565b61063a565b6040516102629190612002565b60405180910390f35b34801561027757600080fd5b50610292600480360381019061028d91906120dc565b61064c565b60405161029f9190612118565b60405180910390f35b3480156102b457600080fd5b506102bd610706565b005b3480156102cb57600080fd5b506102d461071a565b6040516102e19190612002565b60405180910390f35b3480156102f657600080fd5b506102ff610744565b60405161030c9190611f3c565b60405180910390f35b34801561032157600080fd5b5061033c6004803603810190610337919061215f565b6107d6565b005b34801561034a57600080fd5b50610365600480360381019061036091906122d4565b6107ec565b005b610381600480360381019061037c9190612049565b610811565b005b34801561038f57600080fd5b506103aa60048036038101906103a59190611f94565b610951565b6040516103b79190611f3c565b60405180910390f35b6103da60048036038101906103d591906123f8565b610963565b005b3480156103e857600080fd5b5061040360048036038101906103fe9190612454565b610ac8565b6040516104109190611e91565b60405180910390f35b34801561042557600080fd5b50610440600480360381019061043b91906120dc565b610b5c565b005b600061044d82610be2565b9050919050565b606060008054610463906124c3565b80601f016020809104026020016040519081016040528092919081815260200182805461048f906124c3565b80156104dc5780601f106104b1576101008083540402835291602001916104dc565b820191906000526020600020905b8154815290600101906020018083116104bf57829003601f168201915b5050505050905090565b60006104f182610c43565b506104fb82610ccb565b9050919050565b610514828261050f610d08565b610d10565b5050565b600073ffffffffffffffffffffffffffffffffffffffff168273ffffffffffffffffffffffffffffffffffffffff160361058a5760006040517f64a0ae920000000000000000000000000000000000000000000000000000000081526004016105819190612002565b60405180910390fd5b600061059e8383610599610d08565b610d22565b90508373ffffffffffffffffffffffffffffffffffffffff168173ffffffffffffffffffffffffffffffffffffffff1614610614578382826040517f64283d7b00000000000000000000000000000000000000000000000000000000815260040161060b939291906124f4565b60405180910390fd5b50505050565b610635838383604051806020016040528060008152506107ec565b505050565b600061064582610c43565b9050919050565b60008073ffffffffffffffffffffffffffffffffffffffff168273ffffffffffffffffffffffffffffffffffffffff16036106bf5760006040517f89c62b640000000000000000000000000000000000000000000000000000000081526004016106b69190612002565b60405180910390fd5b600360008373ffffffffffffffffffffffffffffffffffffffff1673ffffffffffffffffffffffffffffffffffffffff168152602001908152602001600020549050919050565b61070e610d38565b6107186000610dbf565b565b6000600760009054906101000a900473ffffffffffffffffffffffffffffffffffffffff16905090565b606060018054610753906124c3565b80601f016020809104026020016040519081016040528092919081815260200182805461077f906124c3565b80156107cc5780601f106107a1576101008083540402835291602001916107cc565b820191906000526020600020905b8154815290600101906020018083116107af57829003601f168201915b5050505050905090565b6107e86107e1610d08565b8383610e85565b5050565b6107f7848484610518565b61080b610802610d08565b85858585610ff4565b50505050565b66b1a2bc2ec5000034101561085b576040517f08c379a000000000000000000000000000000000000000000000000000000000815260040161085290612577565b60405180910390fd5b6000600960009054906101000a900473ffffffffffffffffffffffffffffffffffffffff1673ffffffffffffffffffffffffffffffffffffffff1660646005346108a591906125c6565b6108af9190612637565b6040516108bb90612699565b60006040518083038185875af1925050503d80600081146108f8576040519150601f19603f3d011682016040523d82523d6000602084013e6108fd565b606091505b5050905080610941576040517f08c379a0000000000000000000000000000000000000000000000000000000008152600401610938906126fa565b60405180910390fd5b61094c33848461061a565b505050565b606061095c826111a5565b9050919050565b66b1a2bc2ec500003410156109ad576040517f08c379a00000000000000000000000000000000000000000000000000000000081526004016109a490612766565b60405180910390fd5b6000600860008154809291906109c290612786565b9190505590506109d283826112b8565b6109dc81836112d6565b6000600960009054906101000a900473ffffffffffffffffffffffffffffffffffffffff1673ffffffffffffffffffffffffffffffffffffffff166064600534610a2691906125c6565b610a309190612637565b604051610a3c90612699565b60006040518083038185875af1925050503d8060008114610a79576040519150601f19603f3d011682016040523d82523d6000602084013e610a7e565b606091505b5050905080610ac2576040517f08c379a0000000000000000000000000000000000000000000000000000000008152600401610ab9906126fa565b60405180910390fd5b50505050565b6000600560008473ffffffffffffffffffffffffffffffffffffffff1673ffffffffffffffffffffffffffffffffffffffff16815260200190815260200160002060008373ffffffffffffffffffffffffffffffffffffffff1673ffffffffffffffffffffffffffffffffffffffff16815260200190815260200160002060009054906101000a900460ff16905092915050565b610b64610d38565b600073ffffffffffffffffffffffffffffffffffffffff168173ffffffffffffffffffffffffffffffffffffffff1603610bd65760006040517f1e4fbdf7000000000000000000000000000000000000000000000000000000008152600401610bcd9190612002565b60405180910390fd5b610bdf81610dbf565b50565b6000634906490660e01b7bffffffffffffffffffffffffffffffffffffffffffffffffffffffff1916827bffffffffffffffffffffffffffffffffffffffffffffffffffffffff19161480610c3c5750610c3b82611332565b5b9050919050565b600080610c4f83611414565b9050600073ffffffffffffffffffffffffffffffffffffffff168173ffffffffffffffffffffffffffffffffffffffff1603610cc257826040517f7e273289000000000000000000000000000000000000000000000000000000008152600401610cb99190612118565b60405180910390fd5b80915050919050565b60006004600083815260200190815260200160002060009054906101000a900473ffffffffffffffffffffffffffffffffffffffff169050919050565b600033905090565b610d1d8383836001611451565b505050565b6000610d2f848484611616565b90509392505050565b610d40610d08565b73ffffffffffffffffffffffffffffffffffffffff16610d5e61071a565b73ffffffffffffffffffffffffffffffffffffffff1614610dbd57610d81610d08565b6040517f118cdaa7000000000000000000000000000000000000000000000000000000008152600401610db49190612002565b60405180910390fd5b565b6000600760009054906101000a900473ffffffffffffffffffffffffffffffffffffffff16905081600760006101000a81548173ffffffffffffffffffffffffffffffffffffffff021916908373ffffffffffffffffffffffffffffffffffffffff1602179055508173ffffffffffffffffffffffffffffffffffffffff168173ffffffffffffffffffffffffffffffffffffffff167f8be0079c531659141344cd1fd0a4f28419497f9722a3daafe3b4186f6b6457e060405160405180910390a35050565b600073ffffffffffffffffffffffffffffffffffffffff168273ffffffffffffffffffffffffffffffffffffffff1603610ef657816040517f5b08ba18000000000000000000000000000000000000000000000000000000008152600401610eed9190612002565b60405180910390fd5b80600560008573ffffffffffffffffffffffffffffffffffffffff1673ffffffffffffffffffffffffffffffffffffffff16815260200190815260200160002060008473ffffffffffffffffffffffffffffffffffffffff1673ffffffffffffffffffffffffffffffffffffffff16815260200190815260200160002060006101000a81548160ff0219169083151502179055508173ffffffffffffffffffffffffffffffffffffffff168373ffffffffffffffffffffffffffffffffffffffff167f17307eab39ab6107e8899845ad3d59bd9653f200f220920489ca2b5937696c3183604051610fe79190611e91565b60405180910390a3505050565b60008373ffffffffffffffffffffffffffffffffffffffff163b111561119e578273ffffffffffffffffffffffffffffffffffffffff1663150b7a02868685856040518563ffffffff1660e01b81526004016110539493929190612823565b6020604051808303816000875af192505050801561108f57506040513d601f19601f8201168201806040525081019061108c9190612884565b60015b611113573d80600081146110bf576040519150601f19603f3d011682016040523d82523d6000602084013e6110c4565b606091505b50600081510361110b57836040517f64a0ae920000000000000000000000000000000000000000000000000000000081526004016111029190612002565b60405180910390fd5b805181602001fd5b63150b7a0260e01b7bffffffffffffffffffffffffffffffffffffffffffffffffffffffff1916817bffffffffffffffffffffffffffffffffffffffffffffffffffffffff19161461119c57836040517f64a0ae920000000000000000000000000000000000000000000000000000000081526004016111939190612002565b60405180910390fd5b505b5050505050565b60606111b082610c43565b5060006006600084815260200190815260200160002080546111d1906124c3565b80601f01602080910402602001604051908101604052809291908181526020018280546111fd906124c3565b801561124a5780601f1061121f5761010080835404028352916020019161124a565b820191906000526020600020905b81548152906001019060200180831161122d57829003601f168201915b50505050509050600061125b611830565b905060008151036112705781925050506112b3565b6000825111156112a557808260405160200161128d9291906128ed565b604051602081830303815290604052925050506112b3565b6112ae84611847565b925050505b919050565b6112d28282604051806020016040528060008152506118b0565b5050565b806006600084815260200190815260200160002090816112f69190612abd565b507ff8e1a15aba9398e019f0b49df1a4fde98ee17ae345cb5f6b5e2c27f5033e8ce7826040516113269190612118565b60405180910390a15050565b60007f80ac58cd000000000000000000000000000000000000000000000000000000007bffffffffffffffffffffffffffffffffffffffffffffffffffffffff1916827bffffffffffffffffffffffffffffffffffffffffffffffffffffffff191614806113fd57507f5b5e139f000000000000000000000000000000000000000000000000000000007bffffffffffffffffffffffffffffffffffffffffffffffffffffffff1916827bffffffffffffffffffffffffffffffffffffffffffffffffffffffff1916145b8061140d575061140c826118d4565b5b9050919050565b60006002600083815260200190815260200160002060009054906101000a900473ffffffffffffffffffffffffffffffffffffffff169050919050565b808061148a5750600073ffffffffffffffffffffffffffffffffffffffff168273ffffffffffffffffffffffffffffffffffffffff1614155b156115be57600061149a84610c43565b9050600073ffffffffffffffffffffffffffffffffffffffff168373ffffffffffffffffffffffffffffffffffffffff161415801561150557508273ffffffffffffffffffffffffffffffffffffffff168173ffffffffffffffffffffffffffffffffffffffff1614155b801561151857506115168184610ac8565b155b1561155a57826040517fa9fbf51f0000000000000000000000000000000000000000000000000000000081526004016115519190612002565b60405180910390fd5b81156115bc57838573ffffffffffffffffffffffffffffffffffffffff168273ffffffffffffffffffffffffffffffffffffffff167f8c5be1e5ebec7d5bd14f71427d1e84f3dd0314c0f7b2291e5b200ac8c7c3b92560405160405180910390a45b505b836004600085815260200190815260200160002060006101000a81548173ffffffffffffffffffffffffffffffffffffffff021916908373ffffffffffffffffffffffffffffffffffffffff16021790555050505050565b60008061162284611414565b9050600073ffffffffffffffffffffffffffffffffffffffff168373ffffffffffffffffffffffffffffffffffffffff16146116645761166381848661193e565b5b600073ffffffffffffffffffffffffffffffffffffffff168173ffffffffffffffffffffffffffffffffffffffff16146116f5576116a6600085600080611451565b6001600360008373ffffffffffffffffffffffffffffffffffffffff1673ffffffffffffffffffffffffffffffffffffffff168152602001908152602001600020600082825403925050819055505b600073ffffffffffffffffffffffffffffffffffffffff168573ffffffffffffffffffffffffffffffffffffffff1614611778576001600360008773ffffffffffffffffffffffffffffffffffffffff1673ffffffffffffffffffffffffffffffffffffffff168152602001908152602001600020600082825401925050819055505b846002600086815260200190815260200160002060006101000a81548173ffffffffffffffffffffffffffffffffffffffff021916908373ffffffffffffffffffffffffffffffffffffffff160217905550838573ffffffffffffffffffffffffffffffffffffffff168273ffffffffffffffffffffffffffffffffffffffff167fddf252ad1be2c89b69c2b068fc378daa952ba7f163c4a11628f55a4df523b3ef60405160405180910390a4809150509392505050565b606060405180602001604052806000815250905090565b606061185282610c43565b50600061185d611830565b9050600081511161187d57604051806020016040528060008152506118a8565b8061188784611a02565b6040516020016118989291906128ed565b6040516020818303038152906040525b915050919050565b6118ba8383611ad0565b6118cf6118c5610d08565b6000858585610ff4565b505050565b60007f01ffc9a7000000000000000000000000000000000000000000000000000000007bffffffffffffffffffffffffffffffffffffffffffffffffffffffff1916827bffffffffffffffffffffffffffffffffffffffffffffffffffffffff1916149050919050565b611949838383611bc9565b6119fd57600073ffffffffffffffffffffffffffffffffffffffff168373ffffffffffffffffffffffffffffffffffffffff16036119be57806040517f7e2732890000000000000000000000000000000000000000000000000000000081526004016119b59190612118565b60405180910390fd5b81816040517f177e802f0000000000000000000000000000000000000000000000000000000081526004016119f4929190612b8f565b60405180910390fd5b505050565b606060006001611a1184611c8a565b01905060008167ffffffffffffffff811115611a3057611a2f6121a9565b5b6040519080825280601f01601f191660200182016040528015611a625781602001600182028036833780820191505090505b509050600082602001820190505b600115611ac5578080600190039150507f3031323334353637383961626364656600000000000000000000000000000000600a86061a8153600a8581611ab957611ab8612608565b5b04945060008503611a70575b819350505050919050565b600073ffffffffffffffffffffffffffffffffffffffff168273ffffffffffffffffffffffffffffffffffffffff1603611b425760006040517f64a0ae92000000000000000000000000000000000000000000000000000000008152600401611b399190612002565b60405180910390fd5b6000611b5083836000610d22565b9050600073ffffffffffffffffffffffffffffffffffffffff168173ffffffffffffffffffffffffffffffffffffffff1614611bc45760006040517f73c6ac6e000000000000000000000000000000000000000000000000000000008152600401611bbb9190612002565b60405180910390fd5b505050565b60008073ffffffffffffffffffffffffffffffffffffffff168373ffffffffffffffffffffffffffffffffffffffff1614158015611c8157508273ffffffffffffffffffffffffffffffffffffffff168473ffffffffffffffffffffffffffffffffffffffff161480611c425750611c418484610ac8565b5b80611c8057508273ffffffffffffffffffffffffffffffffffffffff16611c6883610ccb565b73ffffffffffffffffffffffffffffffffffffffff16145b5b90509392505050565b600080600090507a184f03e93ff9f4daa797ed6e38ed64bf6a1f0100000000000000008310611ce8577a184f03e93ff9f4daa797ed6e38ed64bf6a1f0100000000000000008381611cde57611cdd612608565b5b0492506040810190505b6d04ee2d6d415b85acef81000000008310611d25576d04ee2d6d415b85acef81000000008381611d1b57611d1a612608565b5b0492506020810190505b662386f26fc100008310611d5457662386f26fc100008381611d4a57611d49612608565b5b0492506010810190505b6305f5e1008310611d7d576305f5e1008381611d7357611d72612608565b5b0492506008810190505b6127108310611da2576127108381611d9857611d97612608565b5b0492506004810190505b60648310611dc55760648381611dbb57611dba612608565b5b0492506002810190505b600a8310611dd4576001810190505b80915050919050565b6000604051905090565b600080fd5b600080fd5b60007fffffffff0000000000000000000000000000000000000000000000000000000082169050919050565b611e2681611df1565b8114611e3157600080fd5b50565b600081359050611e4381611e1d565b92915050565b600060208284031215611e5f57611e5e611de7565b5b6000611e6d84828501611e34565b91505092915050565b60008115159050919050565b611e8b81611e76565b82525050565b6000602082019050611ea66000830184611e82565b92915050565b600081519050919050565b600082825260208201905092915050565b60005b83811015611ee6578082015181840152602081019050611ecb565b60008484015250505050565b6000601f19601f8301169050919050565b6000611f0e82611eac565b611f188185611eb7565b9350611f28818560208601611ec8565b611f3181611ef2565b840191505092915050565b60006020820190508181036000830152611f568184611f03565b905092915050565b6000819050919050565b611f7181611f5e565b8114611f7c57600080fd5b50565b600081359050611f8e81611f68565b92915050565b600060208284031215611faa57611fa9611de7565b5b6000611fb884828501611f7f565b91505092915050565b600073ffffffffffffffffffffffffffffffffffffffff82169050919050565b6000611fec82611fc1565b9050919050565b611ffc81611fe1565b82525050565b60006020820190506120176000830184611ff3565b92915050565b61202681611fe1565b811461203157600080fd5b50565b6000813590506120438161201d565b92915050565b600080604083850312156120605761205f611de7565b5b600061206e85828601612034565b925050602061207f85828601611f7f565b9150509250929050565b6000806000606084860312156120a2576120a1611de7565b5b60006120b086828701612034565b93505060206120c186828701612034565b92505060406120d286828701611f7f565b9150509250925092565b6000602082840312156120f2576120f1611de7565b5b600061210084828501612034565b91505092915050565b61211281611f5e565b82525050565b600060208201905061212d6000830184612109565b92915050565b61213c81611e76565b811461214757600080fd5b50565b60008135905061215981612133565b92915050565b6000806040838503121561217657612175611de7565b5b600061218485828601612034565b92505060206121958582860161214a565b9150509250929050565b600080fd5b600080fd5b7f4e487b7100000000000000000000000000000000000000000000000000000000600052604160045260246000fd5b6121e182611ef2565b810181811067ffffffffffffffff82111715612200576121ff6121a9565b5b80604052505050565b6000612213611ddd565b905061221f82826121d8565b919050565b600067ffffffffffffffff82111561223f5761223e6121a9565b5b61224882611ef2565b9050602081019050919050565b82818337600083830152505050565b600061227761227284612224565b612209565b905082815260208101848484011115612293576122926121a4565b5b61229e848285612255565b509392505050565b600082601f8301126122bb576122ba61219f565b5b81356122cb848260208601612264565b91505092915050565b600080600080608085870312156122ee576122ed611de7565b5b60006122fc87828801612034565b945050602061230d87828801612034565b935050604061231e87828801611f7f565b925050606085013567ffffffffffffffff81111561233f5761233e611dec565b5b61234b878288016122a6565b91505092959194509250565b600067ffffffffffffffff821115612372576123716121a9565b5b61237b82611ef2565b9050602081019050919050565b600061239b61239684612357565b612209565b9050828152602081018484840111156123b7576123b66121a4565b5b6123c2848285612255565b509392505050565b600082601f8301126123df576123de61219f565b5b81356123ef848260208601612388565b91505092915050565b6000806040838503121561240f5761240e611de7565b5b600061241d85828601612034565b925050602083013567ffffffffffffffff81111561243e5761243d611dec565b5b61244a858286016123ca565b9150509250929050565b6000806040838503121561246b5761246a611de7565b5b600061247985828601612034565b925050602061248a85828601612034565b9150509250929050565b7f4e487b7100000000000000000000000000000000000000000000000000000000600052602260045260246000fd5b600060028204905060018216806124db57607f821691505b6020821081036124ee576124ed612494565b5b50919050565b60006060820190506125096000830186611ff3565b6125166020830185612109565b6125236040830184611ff3565b949350505050565b7f5472616e736665722066656520697320302e3035206574686572000000000000600082015250565b6000612561601a83611eb7565b915061256c8261252b565b602082019050919050565b6000602082019050818103600083015261259081612554565b9050919050565b7f4e487b7100000000000000000000000000000000000000000000000000000000600052601160045260246000fd5b60006125d182611f5e565b91506125dc83611f5e565b92508282026125ea81611f5e565b9150828204841483151761260157612600612597565b5b5092915050565b7f4e487b7100000000000000000000000000000000000000000000000000000000600052601260045260246000fd5b600061264282611f5e565b915061264d83611f5e565b92508261265d5761265c612608565b5b828204905092915050565b600081905092915050565b50565b6000612683600083612668565b915061268e82612673565b600082019050919050565b60006126a482612676565b9150819050919050565b7f4661696c656420746f2073656e6420726f79616c747900000000000000000000600082015250565b60006126e4601683611eb7565b91506126ef826126ae565b602082019050919050565b60006020820190508181036000830152612713816126d7565b9050919050565b7f4d696e74696e672066656520697320302e303520657468657200000000000000600082015250565b6000612750601983611eb7565b915061275b8261271a565b602082019050919050565b6000602082019050818103600083015261277f81612743565b9050919050565b600061279182611f5e565b91507fffffffffffffffffffffffffffffffffffffffffffffffffffffffffffffffff82036127c3576127c2612597565b5b600182019050919050565b600081519050919050565b600082825260208201905092915050565b60006127f5826127ce565b6127ff81856127d9565b935061280f818560208601611ec8565b61281881611ef2565b840191505092915050565b60006080820190506128386000830187611ff3565b6128456020830186611ff3565b6128526040830185612109565b818103606083015261286481846127ea565b905095945050505050565b60008151905061287e81611e1d565b92915050565b60006020828403121561289a57612899611de7565b5b60006128a88482850161286f565b91505092915050565b600081905092915050565b60006128c782611eac565b6128d181856128b1565b93506128e1818560208601611ec8565b80840191505092915050565b60006128f982856128bc565b915061290582846128bc565b91508190509392505050565b60008190508160005260206000209050919050565b60006020601f8301049050919050565b600082821b905092915050565b6000600883026129737fffffffffffffffffffffffffffffffffffffffffffffffffffffffffffffffff82612936565b61297d8683612936565b95508019841693508086168417925050509392505050565b6000819050919050565b60006129ba6129b56129b084611f5e565b612995565b611f5e565b9050919050565b6000819050919050565b6129d48361299f565b6129e86129e0826129c1565b848454612943565b825550505050565b600090565b6129fd6129f0565b612a088184846129cb565b505050565b5b81811015612a2c57612a216000826129f5565b600181019050612a0e565b5050565b601f821115612a7157612a4281612911565b612a4b84612926565b81016020851015612a5a578190505b612a6e612a6685612926565b830182612a0d565b50505b505050565b600082821c905092915050565b6000612a9460001984600802612a76565b1980831691505092915050565b6000612aad8383612a83565b9150826002028217905092915050565b612ac682611eac565b67ffffffffffffffff811115612adf57612ade6121a9565b5b612ae982546124c3565b612af4828285612a30565b600060209050601f831160018114612b275760008415612b15578287015190505b612b1f8582612aa1565b865550612b87565b601f198416612b3586612911565b60005b82811015612b5d57848901518255600182019150602085019450602081019050612b38565b86831015612b7a5784890151612b76601f891682612a83565b8355505b6001600288020188555050505b505050505050565b6000604082019050612ba46000830185611ff3565b612bb16020830184612109565b939250505056fea26469706673582212208a669e644ca1083d4e1ddd6978647d9c9ce3016e12fe3eca82583df52f542c6864736f6c63430008180033",
  "linkReferences": {},
  "deployedLinkReferences": {}
}